:1000000000000A128A111228FE00030EF1000408F3
:10001000F2000A08F300831203137F08F4000A12A7
:100020008A11632D83010308A0000A128A11B72FD9
:1000300000308A000408840A820700340134FE3448
:100040000234FC340334F8340434F0340534E0343E
:100050000634C0340734803408340034103400349B
:100060000F3400340E3400340D3400340C340034BA
:100070000B3400340A3400340934003411340034B1
:100080001234003413340034143400341534003482
:1000900016340034173400342934FE34313400343B
:1000A000303400342F3480342E34C0342D34E034D6
:1000B0002C34F0342B34F8342A34FC343234003409
:1000C00033340034343400343534003436340034BE
:1000D0003734003420340034213400345234FC34BA
:1000E0005134FE34273400342634003425340034AF
:1000F0002434003423340034223400345334F834AC
:100100005434F0345534E0345634C03457348034E9
:100110004034003441340034423400344334003439
:100120004434003445340034463400344734003419
:0C01300048340034493400344A340034B0
:100A540001340034003490341034FF34FF34640023
:100A64008001840A0406031900340406322D831617
:100A74000313811281110108F839033881000B1125
:100A84008B16080083120313BB003908BA003A0816
:100A9400A5003B080A128A1190260800831203134A
:100AA400A400A301241C5A2D2108A2002208A30794
:100AB4000310A10D0310A40C2408031D542D2308B6
:100AC400080085148B1A0B1D6C2D0A128A11262618
:100AD4000A128A118312031385107408FF00730825
:100AE4008A0072088400710E8300FE0E7E0E0900D7
:100AF400A03083120313BC003C08A100FF300A128B
:100B04008A1191250A128A11A03083120313BC00A2
:100B14003C08B90000300A128A11442508008312E7
:100B24000313A3003F30A4000030A500A51B080058
:100B34002308A2002408213E840022088313800095
:100B4400FF30A4070318A50AFF30A507982D8312C8
:100B54000313A3003F30A4000030A500A51B080028
:100B64002308A2002408213E84002208831380065F
:100B7400FF30A4070318A50AFF30A507B02D0130E4
:100B840083120313BF020030031CC003C0023F08DA
:100B94004004031D0800FF30BF00FF30C000A03038
:100BA400BC003C08A100FF300A128A11A9250A12D0
:100BB4008A11A03083120313BC003C08B900003032
:100BC4000A128A1144250800FF3083160313880093
:100BD4008700860085000730890003138312201ADA
:100BE400FD2D8316031385100510831203130514BA
:100BF40085106400EF2D831203131F100630831633
:100C040003139F008117831203138901880187014D
:100C140086018501831603138510051083120313BF
:100C2400051085100A128A117A250A128A118B1767
:100C340064000A128A1139250A128A110A128A11C9
:100C4400C1250A128A11202E64000B11FF3083166D
:100C54000313880087008600750983120313860036
:100C6400760987007709880078083D3E8400790872
:100C740083130007F00070088400831700087504CC
:100C8400FF3A83160313860078083D3E84007908F2
:100C940083130007F0007008183E840083170008CF
:100CA4007604FF3A870078083D3E84007908831370
:100CB4000007F0007008303E8400831700087704B2
:100CC400FF3A88000130F0007008F907770803192B
:100CD4007A2E0310F70D7708031D0800F501F50AB5
:100CE400F901831203134108F0007008F8000800AA
:100CF40076080319852E0310F60D7608031D0800E7
:100D0400F701F70A08007508031908000310F50D28
:100D14007508031D0800F601F60A08008312031380
:100D2400B30002303302031808000730B500003066
:100D3400B600B61BB22F0730B7000030B800B81B9E
:100D4400AA2F3508A60004300310A60DFF3E031D8C
:100D5400A62E01302607A7003708A8002807270772
:100D640084000A128A1118200A128A11A90029087B
:100D74001F39AA001830AB002B08A1003508AC00BD
:100D840004300310AC0DFF3E031DC32E01302C07AD
:100D9400AD003708AE002E072D0784000A128A1111
:100DA40018200A128A11AF002F0EB000300C073938
:100DB4000A128A1150250A128A1183120313B100F0
:100DC40033083D3E84008313000831072A07B2002C
:100DD4003208B4003508A60004300310A60DFF3E07
:100DE400031DEF2E01302607A7003708A8002807A7
:100DF4002707013E84000A128A1118200A128A1158
:100E0400A900340884002908831780053508A60042
:100E140002300310A60DFF3E031D0B2F0310260DF9
:100E24002507A70037082707A8002808840083138C
:100E34000008A9003508AA0004300310AA0DFF3EDB
:100E4400031D1F2F01302A07AB003708AC002C0705
:100E54002B07013E84000A128A1118200A128A11F3
:100E6400FF3A2905AD00340884002D088317800457
:100E74003508A60004300310A60DFF3E031D3D2FC8
:100E840001302607A7003708A80028072707013ED6
:100E940084000A128A1118200A128A11003A0319CE
:100EA400A22F0130B4023508A60004300310A60DA9
:100EB400FF3E031D582F01302607A7003708A8005E
:100EC40028072707013E84000A128A1118200A12F3
:100ED4008A11FF3AA90034088400290880053508DE
:100EE400A60002300310A60DFF3E031D742F03104D
:100EF400260D2507A70037082707A800280884001F
:100F040083130008A9003508AA0004300310AA0DB1
:100F1400FF3E031D882F01302A07AB003708AC00C1
:100F24002C072B07013E84000A128A1118200A128A
:100F34008A112905AD00340884002D088317800424
:100F4400FF30B7070318B80AFF30B807B81FA32E3D
:100F5400FF30B5070318B60AFF30B607B61F9D2E3B
:100F64003308A6002608C1000800F801F901C101F0
:100F74008313A0308400E0300A128A1131250A124A
:100F84008A11831790308400D8300A128A113125CF
:100F94000A128A111030840058300A128A1131253D
:100FA4000A128A110A128A112D250A128A11BD0009
:100FB4000A128A112E250A128A11BE000A128A11F7
:100FC4002F250A128A11BF000A128A1130250A122B
:100FD4008A11C0000A128A112A250A128A11F50000
:100FE4000A128A112B250A128A11F6000A128A1192
:0C0FF4002C25F70083010A128A11E62D5B
:02400E003E3D35
:00000001FF
